:020000040000FA
:1000000016EF03F0F76A140FF66E000EF7220900E0
:10001000F5501200280F0106F76A280FF66E000E41
:10002000F7220900F5501200202020202020202057
:1000300020202020202020200000F76A4A0FF66EA2
:10004000000EF7220900F550120042454D2D564989
:100050004E444F00F76A640FF66E000EF722090057
:10006000F5501200494E464F524D45204120534510
:100070004E48413A0000F76A860FF66E000EF722EE
:100080000900F550120020202020202020202020D0
:1000900020202020202020202000F76AAA0FF66EC2
:1000A000000EF7220900F5501200202053454E485B
:1000B000412020200000F76AC60FF66E000EF722DE
:1000C0000900F5501200202053454E4841202020C1
:1000D0002000F76AE20FF66E000EF7220900F550D5
:1000E000120053454E484120434F5252455441005F
:1000F000F76A000FF66E010EF7220900F5501200A4
:1001000042454D2056494E444F00F76A1A0FF66E8D
:10011000010EF7220900F550120020202020202097
:1001200020202020202020202000F76A3A0FF66EA1
:10013000010EF7220900F550120053454E484120A8
:10014000494E434F525245544100F76A5A0FF66EDA
:10015000010EF7220900F550120054454E54452077
:100160004E4F56414D454E544500EA6A160EE96E13
:10017000EF500EE0010E016E006A002EFED7012E38
:10018000FBD74A0E006E002EFED700D0EF2EF2D71E
:10019000000C1DB002D08A9801D08A8893981DB2B5
:1001A00002D08A9A01D08A8A939A1DB402D08A9C7E
:1001B00001D08A8C939C1DB602D08A9E01D08A8E73
:1001C000939E93928A8293928A92000C93908A9043
:1001D0001A5202E18A9001D08A809390210E006E1B
:1001E000002EFED793928A921B381C6E0F0E1C169F
:1001F0001CC01DF0CEDF1B500F0B1C6E1D6EC9DF27
:10020000000C162C01D003D0400E186E01D0186AD5
:10021000010E175C182618508009196E1A6A1B6E99
:10022000D5DF000C15500C0A07E0060A0DE0070A9E
:100230000BE0050A0FE013D01A6A010E1B6EC6DF31
:10024000020E166E92DF1DD0010E166E020E176E94
:10025000D8DF17D01A6A100E1B6EB8DF12D0010E4D
:100260001A6E15C01BF0B2DF055204E01A6A0C0EBC
:100270001B6EACDF055204E11A6A0F0E1B6EA6DF7F
:1002800000D0000C93988A98939A8A9A939C8A9C9F
:10029000939E8A9E93908A9093928A920F0E166EE6
:1002A00064DF010E0F6E0F50030808E3030E1D6E8E
:1002B00070DF050E166E59DF0F2AF5D7020E1D6E80
:1002C00068DF0F6A0F5003080EE3036A0F50F2CF86
:1002D00010F0F29E97DE10BEF28E116E1A6A1B6E3F
:1002E00075DF0F2AEFD7010E166E176E8ADF106AC0
:1002F000105092DE000904E0102A156E93DFF8D743
:10030000020E166E010E176E7CDF106A105084DE2E
:10031000000904E0102A156E85DFF8D732EF03F0EC
:10032000EA6A100EE96EEF500EE0010E016E006AEF
:10033000002EFED7012EFBD74A0E006E002EFED7F0
:1003400000D0EF2EF2D7000C150E105E0EE3EA6A15
:10035000100EE96EFC0EEF16D890EF32EF32EF5030
:1003600004E001D00000EF2EFDD7000C640E0F6EEC
:100370000F5228E095928C9295948C8495968C8659
:1003800095988C88958C83BC06D0030E066E072A40
:10039000140E106EC5DF958A83BA06D0020E066E63
:1003A000072A140E106EBCDF958083B006D0010EB4
:1003B000066E072A140E106EB3DF0F060FC010F082
:1003C000C3DFD6D795928C8295948C8495968C8633
:1003D00095988C88000C640E0F6E0F5228E0959251
:1003E0008C8295948C9495968C8695988C88958C17
:1003F00083BC06D0060E066E072A140E106E90DF20
:10040000958A83BA06D0050E066E072A140E106E62
:1004100087DF958083B006D0040E066E072A140E7F
:10042000106E7EDF0F060FC010F08EDFD6D79592CC
:100430008C8295948C8495968C8695988C88000CEB
:10044000640E0F6E0F5228E095928C8295948C84E6
:1004500095968C9695988C88958C83BC06D0090EC1
:10046000066E072A140E106E5BDF958A83BA06D0DB
:10047000080E066E072A140E106E52DF958083B0A8
:1004800006D0070E066E072A140E106E49DF0F06FF
:100490000FC010F059DFD6D795928C8295948C843A
:1004A00095968C8695988C88000C640E0F6E0F5272
:1004B00023E095928C8295948C8495968C86959861
:1004C0008C98958C83BC04D0140E106E29DF14D048
:1004D000958A83BA05D0066A072A140E106E20DFAB
:1004E000958083B004D0140E106E1ADF05D00F066D
:1004F0000FC010F029DFDBD795928C8295948C8405
:1005000095968C8695988C88000C93968A86640EB6
:10051000106E06DF93968A96000C1650016A155CE1
:1005200003E215C000F00CD0006A080E176E1536F5
:1005300000361650005CD8B0006E0136172EF7D783
:10054000000C200E10A8300E116E0FC000F00FAE80
:1005500007D0001E002A00C00FF02D0E116E108E65
:1005600001500FC015F0640E166ED7DF00C00FF0FB
:10057000300E0124126E0FC015F00A0E166ECDDF7C
:10058000300E0024146E300E0124136E11C000F0E2
:1005900010A602D010AE109410B80BD010AE22D01E
:1005A00010B420D000C012F010B21CD000C013F064
:1005B00019D0300E125C16E100C012F0200E116E40
:1005C00010A604D01094108210AE1092300E135C5E
:1005D00009E100C013F0200E126E10A6F7D710929A
:1005E00010AE109010A403D011C015F01BDE10A2A5
:1005F00003D012C015F016DE10A003D013C015F002
:1006000011DE14C015F00EDE000C93968A869394CA
:100610008A840C0E0F6EFA0E106E82DE0F2EFBD740
:1006200093948A9493968A967FEF05F0F86AD09E09
:10063000EA6AE96AC150C00B0F09C16E070EB46EB9
:10064000010E056E066A076A086A096A0A6A0B6A79
:100650000C6A0D6A0E6AE10E956E000E936E816A49
:10066000836A10D6075246E1010E166E050E176E0C
:10067000C8DD0F6A0F50E1DC0F2A006E156ED2DD67
:10068000090E0F5CF7E1020E0F6EFA0E106E48DED7
:100690000F2EFBD7020E166E010E176EB2DD0F6A1B
:1006A0000F50D8DC0F2A006E156EBCDD100E0F5CEB
:1006B000F7E1020E0F6EFA0E106E32DE0F2EFBD730
:1006C000010E166E176E9DDD0F6A0F50D4DC0F2AD7
:1006D000006E156EA7DD130E0F5CF7E1040E0F6EB2
:1006E000FA0E106E1DDE0F2EFBD740DE74DEA8DE84
:1006F000DCDEB8D7020E166E010E176E82DD0F6AB1
:100700000F50B9DC0F2A006E156E8CDD130E0F5CD6
:10071000F7E1C80E106E04DEF8DE010E166E050E4F
:10072000176E6FDD0F6A0F50B8DC0F2A006E156E62
:1007300079DD0A0E0F5CF7E1020E166E060E176EDB
:1007400060DD06C00FF01F0E106EFBDE960E106E01
:10075000E7DD06C008F0960E106EE2DD010E076EB2
:10076000072C1CD0010E166E050E176E4ADD0F6A9F
:100770000F50A1DC0F2A006E156E54DD0B0E0F5CBE
:10078000F7E1020E166E060E176E3BDD2A0E156E91
:1007900049DDECDD20DE54DE88DEE2D7B6DE010E78
:1007A000166E050E176E2DDD0F6A0F5084DC0F2AB2
:1007B000006E156E37DD0B0E0F5CF7E1020E166E44
:1007C000070E176E1EDD06C00FF01F0E106EB9DE8D
:1007D00006C009F0C80E106EA3DD020E076E0750AA
:1007E00002081CE1010E166E050E176E0ADD0F6A77
:1007F0000F5061DC0F2A006E156E14DD0B0E0F5CBE
:10080000F7E1020E166E070E176EFBDC2A0E156E50
:1008100009DDACDDE0DD14DE48DEE1D776DE010E79
:10082000166E050E176EEDDC0F6A0F5044DC0F2AB2
:10083000006E156EF7DC0B0E0F5CF7E1020E166E04
:10084000080E176EDEDC06C00FF01F0E106E79DE8C
:1008500006C00AF0C80E106E63DD030E076E075067
:1008600003081CE1010E166E050E176ECADC0F6A36
:100870000F5021DC0F2A006E156ED4DC0B0E0F5CBE
:10088000F7E1020E166E080E176EBBDC2A0E156E0F
:10089000C9DC6CDDA0DDD4DD08DEE1D736DE010E7B
:1008A000166E050E176EADDC0F6A0F5004DC0F2AB2
:1008B000006E156EB7DC0B0E0F5CF7E1020E166EC4
:1008C000090E176E9EDC06C00FF01F0E106E39DE8B
:1008D00006C00BF0C80E106E23DD040E076E075025
:1008E00004081DE1010E166E050E176E8ADC0F6AF4
:1008F0000F505BEC00F00F2A006E156E93DC0B0EB0
:100900000F5CF6E1020E166E090E176E7ADC2A0EE7
:10091000156E88DC2BDD5FDD93DDC7DDE0D7F5DD0F
:10092000010E166E050E176E6CDC0F6A0F505BEC35
:1009300000F00F2A006E156E75DC0B0E0F5CF6E1F1
:10094000020E166E0A0E176E5CDC06C00FF01F0E4C
:10095000106EF7DD06C00CF0C80E106EE1DC050E5F
:10096000076E075005081DE1010E166E050E176E85
:1009700048DC0F6A0F505BEC00F00F2A006E156E1A
:1009800051DC0B0E0F5CF6E1020E166E0A0E176EAE
:1009900038DC2A0E156E46DCE9DC1DDD51DD85DD17
:1009A000E0D7B3DD010E166E050E176E2ADC0F6A56
:1009B0000F505BEC00F00F2A006E156E33DC0B0E4F
:1009C0000F5CF6E1020E166E0B0E176E1ADC06C0F7
:1009D0000FF01F0E106EB5DD06C00DF0C80E106EC4
:1009E0009FDC060E076E075006081EE1010E166E0C
:1009F000050E176E06DC0F6A0F505BEC00F00F2A35
:100A0000006E156E0FDC0B0E0F5CF6E1020E166E1B
:100A10000B0E176E01EC01F02A0E156E03DCA6DC3E
:100A2000DADC0EDD42DDDFD770DD010E166E050E5D
:100A3000176E01EC01F00F6A0F505BEC00F00F2A0B
:100A4000006E156E12EC01F00B0E0F5CF5E1020E5C
:100A5000166E0C0E176E01EC01F02A0E156E12ECDC
:100A600001F006C00EF0020E0F6E960E106E58DCEE
:100A70000F2EFBD7070E076E07500708D8A4E1D04A
:100A800008500208D8A46CD009500408D8A468D033
:100A90000A50080865E10B50080862E10C50040890
:100AA0005FE10D5002085CE10E525AE1010E166E34
:100AB000030E176E01EC01F00F6A0F5069EC00F0A5
:100AC0000F2A006E156E12EC01F00D0E0F5CF5E1B1
:100AD000020E166E050E176E01EC01F00F6A0F5034
:100AE00078EC00F00F2A006E156E12EC01F0090E82
:100AF0000F5CF5E10ADD640E106E12DC86D5140E73
:100B00000F6EFA0E106E0CDC0F2EFBD7FEDC640E9F
:100B1000106E06DC010E166E020E176E01EC01F06F
:100B20000F6A0F5085EC00F00F2A006E156E12EC64
:100B300001F00F0E0F5CF5E1020E166E176E01EC60
:100B400001F00F6A0F5085EC00F00F2A006E156E51
:100B500012EC01F00F0E0F5CF5E1066A076A68D02F
:100B6000010E166E020E176E01EC01F00F6A0F50A7
:100B700095EC00F00F2A006E156E12EC01F00F0ECE
:100B80000F5CF5E1020E166E176E01EC01F00F6AB4
:100B90000F50A5EC00F00F2A006E156E12EC01F05C
:100BA0000F0E0F5CF5E1B1DC640E106E90EC01F0FD
:100BB000ACDC640E106E90EC01F0A7DC640E106EDD
:100BC00090EC01F0A2DC640E106E90EC01F09DDC64
:100BD000640E106E90EC01F098DC0C0E0F6EFA0EA5
:100BE000106E90EC01F00F2EFAD7010E166E020E69
:100BF000176E01EC01F00F6A0F5085EC00F00F2A20
:100C0000006E156E12EC01F00F0E0F5CF5E1020E96
:100C1000166E176E01EC01F00F6A0F5085EC00F0B4
:100C20000F2A006E156E12EC01F00F0E0F5CF5E14D
:100C3000066A076A086A096A0A6A0B6A0C6A0D6A18
:060C40000E6A10D503004E
:020000040030CA
:0E00000020001E1E008381000FC00FE00F4085
:00000001FF
;PIC18F4550
